:020000040800F2
:1000000078080020890100086B1B0008FD19000812
:10001000691B00087D030008D11E000800000000D5
:100020000000000000000000000000009F1B00080E
:100030009B03000800000000731B0008A11B0008C0
:10004000A3010008A3010008A3010008A301000800
:10005000A3010008A30100089D030008A3010008F4
:10006000A3010008A3010008A3010008A3010008E0
:10007000A3010008A3010008A3010008A3010008D0
:10008000A3010008A3010008A3010008A3010008C0
:10009000A3010008A3010008A3010008A3010008B0
:1000A000A3010008A3010008A3010008A3010008A0
:1000B0000D1C0008A3010008A3010008A30100080B
:1000C000A3010008A3010008A3010008A301000880
:1000D000A3010008C51E0008A3010008A301000831
:1000E000A3010008A3010008A301000800F002F822
:1000F00000F03AF80AA090E8000C82448344AAF188
:100100000107DA4501D100F02FF8AFF2090EBAE885
:100110000F0013F0010F18BFFB1A43F0010318473B
:10012000B81F0000D81F0000103A24BF78C878C15B
:10013000FAD8520724BF30C830C144BF04680C60ED
:10014000704700000023002400250026103A28BF35
:1001500078C1FBD8520728BF30C148BF0B60704739
:100160001FB51FBD10B510BD00F058F81146FFF7C0
:10017000F7FF01F007FF00F076F803B4FFF7F2FF96
:1001800003BC00F07DF8000009488047094800479B
:10019000FEE7FEE7FEE7FEE7FEE7FEE7FEE7FEE737
:1001A000FEE7FEE704480549054A064B7047000094
:1001B0000B1C0008ED0000087802002078080020E1
:1001C00078040020780400204FF0000200B51346A8
:1001D00094469646203922BFA0E80C50A0E80C5067
:1001E000B1F12001BFF4F7AF090728BFA0E80C5018
:1001F00048BF0CC05DF804EB890028BF40F8042B11
:1002000008BF704748BF20F8022B11F0804F18BF7D
:1002100000F8012B7047704770477047754600F033
:100220002BF8AE4605006946534620F00700854688
:1002300018B020B5FFF7B6FFBDE820404FF000062C
:100240004FF000074FF000084FF0000B21F00701BE
:10025000AC46ACE8C009ACE8C009ACE8C009ACE801
:10026000C0098D46704710B50446AFF300802046A4
:10027000BDE81040FFF781BF00487047180200201A
:1002800001491820ABBEFEE72600020070470000BF
:1002900070B5044600688168C943C90717D18168F1
:1002A00021F00101816000F0E7FB05460AE000BF94
:1002B00000F0E2FB401B022804D920688068C0439C
:1002C000C00706D020688068C043C007F0D0002077
:1002D00070BDA06A40F01000A062E06A40F001002A
:1002E000E062012070BD0000F8B5002604460096CB
:1002F00000688168C943C9072DD0816841F00101B8
:100300008160164816490068B0FBF1F000E0401E1D
:1003100000900028FBD100F0AFFB054616E000BFBF
:1003200000F0AAFB401B022810D920688068C04357
:10033000C0070BD0A06A40F01000A062E06A40F055
:100340000100E06284F824600120F8BD2068806824
:10035000C043C007E4D10020F8BD00001800002011
:1003600040420F000246012005E0CB0700D0504379
:100370005243D2B249080029F7D17047FEE710B5C1
:10038000040008D0601EC1B20A20FFF7EBFF6043F3
:10039000C0F3074010BD002010BD704710B500F03D
:1003A0001BFF062000F0C6FB4FF40051034800F08D
:1003B00055FBBDE81040012000F054BA0010014088
:1003C00070B514460D460646002305E0E95C30464C
:1003D00001F0D0FB5B1CDBB2A342F7D370BD90F8F9
:1003E0000011B0F80221891A09B2002902DA01F5D8
:1003F000807109B2521E415CA0F8022148B27047D8
:10040000F8B50024009490F824202546012A12D043
:10041000012280F824204A681F23072A0DD206688B
:10042000776B521E02EB820293409F430B6893400E
:100430001F43776319E00220F8BD06680D2A0AD22F
:10044000376BD21F02EB820293409F430B689340AD
:100450001F43376309E0F76A0D3A02EB82029340CB
:100460009F430B6893401F43F7620A68072306689F
:100470000A2A0AD3F7680A3A02EB420293409F43E2
:100480008B6893401F43F76008E0376902EB420234
:1004900093409F438B6893401F4337610A68102A3B
:1004A00001D0112A20D1124B02689A4217D19368C9
:1004B0001B0219D4936843F4000393600968102960
:1004C00012D10C490C4A0968B1FBF2F101EB810130
:1004D000490000E0491E00910029FBD104E0816A37
:1004E00041F020018162012480F824502046F8BDAB
:1004F000002401401800002040420F000068C06C3A
:10050000704700002DE9F0414FF0000704003D4620
:100510007ED0A06A002628B9E66284F824602046CE
:1005200000F07EF82046FFF7B3FEA16AC90600D4AA
:1005300020B1A06A40F01000A06269E0A16A21F435
:10054000885141F00201A1626268E169237B0A439C
:1005500047EA43010A43A1684FF48077B94209D0C2
:10056000012907D05FF0000194F814C0BCF1010F1D
:1005700002D00AE03946F7E7F3B1A36A43F020035B
:10058000A362E36A43F00103E3622368D3F804C083
:100590002CF4694C4CEA010CC3F804C021688B6848
:1005A000DFF870C003EA0C0313438B60A168B94203
:1005B0000BD0012909D00CE0DFF85CC0A3690CEB7B
:1005C00043330B4343F40061DFE7218A0D05A5F5B2
:1005D00080152168CB6A23F470032B43CB6221681A
:1005E00089680E4B1940914208D1E662A16A21F058
:1005F000020141F00101A162BDE8F081A06A20F092
:10060000020040F01000A062E06A40F00100E062E9
:100610000120F1E7FDF7E1FF00E0FFFFFE0E1FFF05
:1006200008B500680649884208D10648816941F446
:1006300000718161806900F40070009008BD0000C5
:10064000002401400010024070B5044690F82400D8
:1006500001280DD0012084F824002046FFF744FE35
:1006600002004FF0000005D084F82400104670BD51
:10067000022070BDA16A40F20123994341F48071C8
:10068000A1621F4D23681F49AB4218D10E6816F4B2
:10069000702F14D0A66A46F48016A6620E687605FE
:1006A00005D5A66A26F4005646F48056A662A66AC8
:1006B000F6040AD5E66A26F00606E66206E0A66AB1
:1006C00026F48016A6625E68E9E7E06284F82400FA
:1006D0006FF00200186020688368C3F34243072B61
:1006E00005D1A84208D1096811F4702F04D081689F
:1006F00041F480118160B9E7816841F4A001F9E714
:10070000002801400424014030B5022343710368EE
:100710009C6844F001049C60002304E0056851F8E3
:1007200023402C605B1C9342F8D3016809680122C6
:100730004271084630BD10B5040002D0607910B196
:1007400006E0012010BD00202071204600F004F8D2
:1007500001206071002010BD08B50068064988427C
:1007600008D10648416941F040014161406900F00B
:100770004000009008BD0000003002400010024020
:1007800010B590F821100022022905D004218163C0
:1007900080F82020012010BD01680B6823F00E03B3
:1007A0000B6001680B6823F001030B6090F8403088
:1007B000C46B012101FA03F3636080F8211080F813
:1007C0002020104610BD000010B590F82110002424
:1007D000022903D00421816301243DE001680A68F5
:1007E00022F00E020A6001680A6822F001020A6023
:1007F0001A4A0168914201D1012121E0174A1432BD
:10080000914201D110211BE0144A2832914201D1BA
:10081000891515E0114A3C32914201D189140FE04B
:100820000E4A5032914202D14FF4803108E00B4A17
:100830006432914202D14FF4801101E04FF0807197
:10084000064A083A5160012180F82110002180F801
:100850002010416B01B18847204610BD08000240BE
:1008600070470000044910B50A68024202D00860CF
:10087000FFF7F6FF10BD0000140401402DE9F84F0A
:10088000DFF8B891002409F1040A0AF1040B2346A9
:100890000F270BF1040EC9E00125A5402A40AA420A
:1008A0007DD1674ED1F804C0ACEB0608B44532D018
:1008B00014DCBCF1030F3AD009DCBCF1000F2AD0E4
:1008C000BCF1010F1CD0BCF1020F31D11DE0BCF115
:1008D000110F17D0BCF1120F2AD119E0B8F5881FFB
:1008E00019D006DCB8F5803F15D0B8F5801F1FD1B0
:1008F00011E0B8F5001F0ED0B8F5041F18D10AE0BA
:10090000CB6815E0CB681B1D12E0CB6808330FE005
:10091000CB680C330CE08B682BB1012B4FF0080334
:1009200003D0456104E0042302E0056100E00023F8
:10093000FF2A01D8064601E000F104064FEA8405CB
:1009400001D9A5F12005D6F8008007FA05FC28EAB0
:100950000C0803FA05F548EA0508C6F800804D685A
:10096000ED0062D5374DAE6946F00106AE61AD6966
:1009700024F0030605F001050095334D06EB050C48
:10098000DCF80850A607360F07FA06F825EA08052E
:10099000DFF8B880404503D14FF0000817E044E08D
:1009A000DFF8AC80404502D14FF001080FE0DFF8DE
:1009B000A480404502D14FF0020808E0DFF898809B
:1009C000404502D14FF0030801E04FF0040808FA57
:1009D00006F848EA0508CCF808804D68D9F80060A8
:1009E000ED034D4601D5164300E096432E604D6859
:1009F000DAF80060AD03554601D5164300E0964392
:100A00002E604D68DBF80060ED025D4601D51643AF
:100A100000E096432E604D68DEF80060AD0275463A
:100A200001D5164300E096432E60641C0D682A46EB
:100A3000E5407FF431AFBDE8F88F000000040140CD
:100A400000001110001002400000014000080140A9
:100A5000000C01400010014000140140C26821EA6E
:100A600002030A4043EA0241016170470AB1016191
:100A700070470904FBE700000148806870470000E8
:100A80000C000020024881680278114481607047A0
:100A90000C000020074810B5016841F0100101600A
:100AA000032000F085F80F2000F006F800F024F88D
:100AB000002010BD0020024070B50D4D04464FF4DB
:100AC0007A712878B1FBF0F00A490968B1FBF0F0BF
:100AD00000F089FB48B9102C07D200222146501E95
:100AE00000F046F800206C6070BD012070BD000071
:100AF0000C000020180000200C4808B5816941F066
:100B000001018161816901F001010091C16941F038
:100B10008051C161C06900F0805000900448416874
:100B200021F0E06141F00071416008BD0010024019
:100B30000000014000280DDB00F01F020121914060
:100B40004009800000F1E020C0F88011BFF34F8F12
:100B5000BFF36F8F7047002809DB00F01F020121EF
:100B600091404009800000F1E020C0F8001170477A
:100B7000F0B40E4B1B680C46C3F30223C3F1070508
:100B8000042D00D90425191D072901D2002300E0F6
:100B9000DB1E012606FA05F1491E214099409E40C0
:100BA000761E16403143F0BC01F093B90CED00E025
:100BB000064900F0070208684FF6FF03184040EAB4
:100BC0000220034A10430860704700000CED00E06B
:100BD0000000FA050648026822F0040202600129BA
:100BE00003D040BF20BF20BF704730BF7047000018
:100BF00010ED00E02DE9F84305460078354CC007BC
:100C000054D0E0690026C00008D4E06940F080506C
:100C1000E061E069012600F0805000902E480168F4
:100C2000C90512D40168804641F480710160FFF764
:100C300023FF074605E000BFFFF71EFFC01B642827
:100C400023D8D8F80000C005F6D5206A10F440700B
:100C500021D0A98801F4407181421CD0206A1F492B
:100C6000012220F440700A6000220A602062C0075E
:100C700011D0FFF701FF074641F2883808E000BFB6
:100C8000FFF7FAFEC11B414502D90320BDE8F883F6
:100C9000206A8007F4D5206A696820F44070084310
:100CA00020621EB1E06920F08050E0612878800762
:100CB00005D56068A96820F4404008436060287842
:100CC000C00605D56068E96820F4800008436060CC
:100CD0000020DBE700100240007000404004424268
:100CE0002DE9F0470F46050061D0434E306800F013
:100CF0000700B84209D2306820F00700384330605E
:100D0000306800F00700B84251D128683B4C810799
:100D100012D5400703D5606840F4E0606060287831
:100D2000000703D5606840F4605060606068A9689F
:100D300020F0F000084360602878C00728D0686879
:100D4000012810D02168022810D0890700292EDA46
:100D5000616821F0030101436160FFF78DFE804669
:100D600041F288390DE021688903EFE78901EDE759
:100D7000FFF782FEA0EB0801494502D90320BDE838
:100D8000F0876068696800F00C00B0EB810FEFD16C
:100D9000306800F00700B8420BD9306820F0070037
:100DA00038433060306800F00700B84201D00120BD
:100DB000E5E72878400705D56068E96820F4E06039
:100DC000084360602878000706D56068296920F428
:100DD000605040EAC100606000F038F86168084A7D
:100DE000C1F30311515CC840064908600648006819
:100DF000FFF762FE0020C2E7002002400010024020
:100E0000C0200008180000201000002004480549F8
:100E100000684968044AC1F30221515CC840704728
:100E20001800002000100240D020000804480549A6
:100E300000684968044AC1F3C221515CC840704748
:100E40001800002000100240D020000812A185B038
:100E50000FC98DE80F0014A0144A0068049051686F
:100E6000134801F00C03042B10D0082B0ED1C1F352
:100E70008343C9031DF803000AD5516804AAC1F3CE
:100E80004041515C0A4A5043B0FBF1F005B0704755
:100E900008494843FAE70000020304050607080969
:100EA0000A0B0C0D0E0F1010010200000010024082
:100EB00000127A0000093D002DE9F84F040070D0BF
:100EC0002078C04DC00749D06868C0F38100012870
:100ED00007D06868C0F38100022809D16868C003A0
:100EE00006D52868800339D560680028E7D035E04A
:100EF0006068B0F5803F0BD010B1B0F5A02F11D0D5
:100F0000286820F480302860286820F4802002E0DF
:100F1000286840F480302860606890B1FFF7ACFD2D
:100F200006460AE0286840F480202860F0E700BF09
:100F3000FFF7A2FD801B642873D828688003F7D5CB
:100F40000CE0FFF799FD064605E000BFFFF794FDB2
:100F5000801B6428F0D828688003F7D420789A4E44
:100F600080074FF001094FF0000839D5686810F08C
:100F70000C0F07D06868C0F38100022809D16868A7
:100F8000C00306D42868800714D52069012808D139
:100F900010E02069B0B1C6F80090FFF76DFD07467C
:100FA00005E00AE1FFF768FDC01B0228C4D82868E5
:100FB0008007F7D52868616920F0F80040EAC10091
:100FC00028600DE0C6F80080FFF756FD074604E0F4
:100FD000FFF752FDC01B022823D828688007F7D4EA
:100FE000207800072CD57948A169D9B1C0F80090C4
:100FF000FFF742FD074604E0FFF73EFDC01B022855
:101000000FD8686A8007F7D571484FF4FA51006825
:10101000B0FBF1F0009000BF0098411E0091FAD2A1
:101020000EE080E0C0F80080FFF726FD074604E0F0
:10103000FFF722FDC01B022875D8686A8007F7D425
:101040002078400760D5E8690027C00008D4E86927
:1010500040F08050E861E869012700F0805000907E
:101060005C480168C90513D40168834641F4807166
:101070000160FFF701FD824606E000BFFFF7FCFCC0
:10108000A0EB0A0064284ED8DBF80000C005F5D5B7
:10109000E06801280AD008B1052813D0286A20F09A
:1010A00001002862286A20F0040002E0286A40F06B
:1010B00001002862E06841F2883B98B1FFF7DCFC50
:1010C00082460BE0286A40F004002862EEE700BF89
:1010D000FFF7D2FCA0EB0A0159455AD8286A8007CD
:1010E000F6D50CE0FFF7C8FC824605E0FFF7C4FC2C
:1010F000A0EB0A0159454CD8286A8007F6D41FB1E5
:10110000E86920F08050E861E06988B36968C1F35C
:101110008101022944D00228C6F8608004D0FFF77C
:10112000ABFC044638E034E0FFF7A6FC074604E0D9
:10113000FFF7A2FCC01B02282BD828688001F7D437
:10114000206AB0F5803F05D16868A16820F40030BE
:1011500008436860D4E908010843696821F4741100
:1011600008436860C6F86090FFF786FC044606E016
:1011700025E000BFFFF780FC001B022809D8286883
:101180008001F7D51BE000BFFFF776FC001B0228AB
:1011900002D90320BDE8F88F28688001F4D40EE05E
:1011A0000128F7D06868226A00F48031914204D1A6
:1011B000616A00F47010884201D00120EAE7002043
:1011C000E8E7000000100240000042428004424272
:1011D00018000020007000404FF0E020016941F04D
:1011E00002010161704710B5401EB0F1807F01D34C
:1011F000012010BD4FF0E02460610F21601700F066
:1012000068FE0020A06107202061002010BD4FF083
:10121000E020016921F002010161704770477047C9
:1012200070B590F83C20012A26D0012480F83C407B
:10123000022280F83D2003685A689D6822F07006FB
:101240000A6832435A600D4B02689A4208D0B2F1E4
:10125000804F05D00A4B9A4202D00A4B9A4204D1E1
:10126000496825F080031943916080F83D400021D2
:1012700080F83C10084670BD022070BD002C014073
:10128000000400400008004010B50446022084F825
:101290003D002068016A41F21112114207D1016A32
:1012A0009210114203D1016821F001010160204632
:1012B00000F046F8002084F8460084F83E0084F8E8
:1012C0003F0084F8400084F8410084F8420084F82C
:1012D000430084F8440084F8450084F83D0084F815
:1012E0003C0010BD10B5040003D094F83D0010B1CF
:1012F00007E0012010BD002084F83C00204600F0EB
:101300002FF8022084F83D00211D206800F084FCA5
:10131000012084F8460084F83E0084F83F0084F8F9
:10132000400084F8410084F8420084F8430084F8C7
:10133000440084F8450084F83D00002010BD000002
:101340000068B0F1804F07D10448C16921F0010164
:10135000C1611C20FFF7EEBB704700000010024087
:1013600008B50068B0F1804F12D10A48C16941F058
:101370000101C161C069002200F001000090114626
:101380001C20FFF7F5FBBDE808401C20FFF7E3BB7E
:1013900008BD00000010024090F83D10012901D066
:1013A00001207047022180F83D100168CA6842F0B0
:1013B0000102CA6000680B49884208D0B0F1804F32
:1013C00005D00949884202D00849884204D1816881
:1013D00001F00701062903D0016841F00101016015
:1013E00000207047002C014000040040000800402D
:1013F0000168CA6822F00102CA6001680A6A41F203
:1014000011131A4207D10A6A9B101A4203D10A68C3
:1014100022F001020A60012180F83D10002070478F
:1014200070B5044690F83C00012817D0012584F8D7
:101430003C50022084F83D002068826822F0770248
:1014400022F47F4282600868502830D00DDC2028CA
:101450004DD005DC98B310283BD148E0022070BD88
:10146000302844D0402834D139E0602828D0702872
:1014700006D0B0F5805F2CD0B0F5005F29D10AE02E
:10148000CB68D1E90121206800F0FCFB206881686D
:1014900041F0770109E0CB68D1E90121206800F033
:1014A000F1FB2068816841F48041816011E0CA68E5
:1014B0004968206800F0F8FB5021206807E016E03A
:1014C000CA684968206800F000FC6021206800F0CC
:1014D000E3FB84F83D50002084F83C0070BDCA68EE
:1014E0004968206800F0E0FB40212068EFE72268AF
:1014F00001461046EBE7704770B504460068016985
:101500004FF00005C943890715D4C168C94389074D
:1015100011D4E91E016101202077206880698007CD
:10152000204602D0FFF7E7FF04E000F098F82046DD
:1015300000F096F8257720680169C943490717D458
:10154000C168C943490713D46FF004010161022047
:1015500020772068806910F4407F204602D0FFF792
:10156000CAFF04E000F07BF8204600F079F8257708
:1015700020680169C943090716D4C168C94309072E
:1015800012D46FF008010161042020772068C0693F
:101590008007204602D0FFF7AEFF04E000F05FF8BE
:1015A000204600F05DF8257720680169C943C90627
:1015B00017D4C168C943C90613D46FF01001016183
:1015C000082020772068C06910F4407F204602D0B0
:1015D000FFF791FF04E000F042F8204600F040F8E9
:1015E000257720680169C943C90708D1C168C94383
:1015F000C90704D1891E0161204600F033F8206834
:101600000169C943090609D4C168C943090605D45B
:101610006FF0800101612046FFF700FE206801693C
:10162000C943490609D4C168C943490605D46FF0C6
:1016300040010161204600F03FF820680169C9437C
:1016400089060BD4C168C943890607D46FF020010D
:1016500001612046BDE87040FFF7E1BD70BD7047F5
:101660007047000010B51048FFF7C2FE0E48FFF7A4
:101670000BFE00F06FFC0D4C207800F047FC227848
:101680000B490C48FEF79CFE00F032FB0648FFF7C2
:1016900029FE05496FF0010009680861BDE81040A6
:1016A0000148FFF779BE0000540000201D00002013
:1016B000E4010020E0000020704770477047000000
:1016C000F8B5026804461068D168536910F00F0F2E
:1016D0004FF0000553D003F0010601F49077374333
:1016E0005FD0C20705D0CA0503D5226C42F00102C3
:1016F0002264420705D5DA0703D0226C42F00202C9
:101700002264820705D5DA0703D0226C42F0040276
:101710002264020707D501F02002324303D0226C75
:1017200042F008022264226C002A34D0800604D5DC
:10173000880602D5204600F00DFB20684069216C28
:10174000C0F38010090700D430B3204600F0EAFA55
:101750002068416949061BD5416921F0400141617A
:10176000A06BA8B158494163A06BFFF72DF8002882
:1017700011D0A06B416B01B0BDE8F0400847830673
:101780000FD58B060DD52046BDE8F84000F0E2BA33
:101790002046FFF793FFF8BD2046FFF78FFF256433
:1017A000F8BD266B2023012E52D1C60650D5CE0699
:1017B0004ED5106850680090506940062AD5A16B3C
:1017C000086840680004000CEAD0A68D8642E7D97C
:1017D000E0858869202818D0D06820F48070D06017
:1017E0002068416921F0010141612068416921F0CF
:1017F0004001416184F83E3025632068C16821F0D2
:101800001001C160A06BFEF7BBFFA08DE18D401AF7
:1018100081B219E0A08DE18D401A81B2E08D0028DF
:10182000BED00029BCD0D06820F49070D060206871
:10183000426922F00102426184F83E30256320684B
:10184000C26822F01002C2602046FFF736FFF8BDE2
:1018500005062BD50D0629D594F83D002128F6D193
:10186000A068B0F5805F01D12069B0B1206A411C49
:101870002162216800784860E08C401E0004000C62
:10188000E084E4D12068C16821F08001C160206853
:10189000C16841F04001C160F8BD206A0088C0F312
:1018A00008005060206A801C2062E5E74006F3D5FE
:1018B0004806F1D5D168204621F04001D16084F876
:1018C0003D3000F095F8F8BD151D000870B5040016
:1018D00004D094F83D00002510B106E0012070BD51
:1018E00084F83C50204600F023F8242084F83D0082
:1018F0002068C16821F40051C160204600F086FADA
:101900002068016921F4904101612068416921F05A
:101910002A0141612068C16841F40051C160256419
:10192000202084F83D0084F83E00002070BD0000B7
:1019300030B585B0002400940194029403940068AB
:10194000184988422CD11848816941F4804181614D
:10195000816901F480410491816941F00401816150
:101960008069124D00F0040004904FF40070009064
:10197000022001900320039069462846FEF77EFF6F
:101980002815CDE90004694628460294FEF776FF43
:10199000002211462520FFF7EBF82520FFF7DBF8A2
:1019A00005B030BD00380140001002400008014081
:1019B000704790F83D30202B18D1A9B1A2B190F812
:1019C0003C30012B12D001628284C2840021016468
:1019D000212280F83D2080F83C100068C16841F069
:1019E0008001C160002070470120704702207047CD
:1019F000014901200870704700000020FEE7002127
:101A000080F80011A0F80211704700003EB50024D4
:101A100011480094019402940E498460016004739B
:101A20000475012505614FF460214460C161FEF732
:101A300069FD08B172B6FEE71020CDE900056946E0
:101A400002940548FEF7DCFC002801D072B6FEE7E0
:101A50003EBD0000002401402400002070B586B087
:101A6000002424480094019402940394816941F075
:101A700010018161816901F010010491816941F0D7
:101A800020018161816901F020010491816941F0A7
:101A900008018161816901F008010491816941F0C7
:101AA000040181618069012200F00400124E550397
:101AB000049029463046FEF7D9FF00950125CDE96F
:101AC00001540224694630460394FEF7D7FE0B48C2
:101AD0000095CDE9010469460948FEF7CFFE0022D2
:101AE00011460620FFF744F80620FFF734F806B049
:101AF00070BD0000001002400010014000001110F5
:101B0000000C014010B586B00024164800940194E2
:101B10000294039404944FF080410594016040F2D4
:101B20001F31C0E901140A21C0E903148461FFF7E1
:101B3000D9FB08B172B6FEE74FF4805000906946B9
:101B40000848FFF76DFC08B172B6FEE7049404A9DB
:101B500004480594FFF764FB002801D072B6FEE745
:101B600006B010BD54000020FEE7FEE790F8020129
:101B70007047704790F80021815490F800114FF49D
:101B80008072491C80F80011B0F80211491C89B21A
:101B9000A0F80211914201D9A0F8022170477047C4
:101BA000FEF770BF30B593B028216846FEF70CFBF6
:101BB00014210AA8FEF708FB002401250F941094B5
:101BC0002804CDE900501194129407946846FFF759
:101BD00073F908B172B6FEE70F200A90CDE90B54F5
:101BE0000D9400210AA80E94FFF77AF808B172B696
:101BF000FEE702200F9011940FA8FEF7FBFF0028CC
:101C000001D072B6FEE713B030BD70470148FFF750
:101C100073BC000054000020F0B50268164B174C4E
:101C2000174D4FF08047984205D0B84203D0A042EC
:101C300001D0A84203D122F070064A68324398428C
:101C400005D0B84203D0A04201D0A84203D122F46B
:101C50004074CA6822434C6922F080022243026029
:101C60008A68C2620A688262984201D10969016386
:101C700001214161F0BD0000002C01400004004042
:101C80000008004010B5846842EA032224F47F442F
:101C90000A432243826010BD826822F070020A4328
:101CA00042F007018160704710B5036A046A24F0AE
:101CB00001040462846924F0F00444EA021423F06D
:101CC0000A020A438461026210BD10B5036A23F060
:101CD000100303628369046A23F4704343EA023207
:101CE00024F0A00343EA01118261016210BD0000EB
:101CF000064810B500780649401EC8600846FFF740
:101D0000F1FA002801D072B6FEE710BD1C000020D9
:101D10005400002010B5406A0021C185C184FFF73E
:101D2000CDFC10BD0168CA6822F49072CA600168D7
:101D30004A6922F001024A61016B012904D101685C
:101D4000CA6822F01002CA60202180F83E100021EB
:101D50000163704708B590F83E10222901D0022097
:101D600008BD82684FF480539A4201D1016921B1C4
:101D7000816A9A421BD04AB10AE00268816A5268BD
:101D8000C2F308020A80816A891C08E0026972B104
:101D90000268526802F07F020A70816A491C8162FF
:101DA000C18D491E0904090CC18503D019E00268E0
:101DB0005268F1E70168CA6822F02002CA6001682F
:101DC000CA6822F48072CA6001684A6922F001027E
:101DD0004A61202180F83E10016B012903D0FFF7F2
:101DE000E7FD002008BD002101630168CA6822F0F8
:101DF0001002CA6001680A68D20602D50A684968FA
:101E00000091818DFFF759FCEBE7000070B50446A7
:101E100000680169E26821F44051114301612169C0
:101E2000A0680843616908432168CA6841F20C63ED
:101E30009A430243CA6020684169A26921F4407153
:101E4000114341611E492068884202D1FEF7EEFF2E
:101E500001E0FEF7DBFF00EBC00101EB0012606860
:101E600064218000B2FBF0F3B3FBF1F36FF01806CE
:101E70007343B2FBF0F5B2FBF0F605EB83053223BA
:101E800003EB0515B5FBF1F5B6FBF1F605F0F00532
:101E900005EB0615B2FBF0F6B2FBF0F0B0FBF1F08B
:101EA0006FF01802504306EB800003EB0010B0FB0C
:101EB000F1F0216800F00F002844886070BD000038
:101EC000003801400148FFF7FBBB00009C000020E8
:101ED000FEE70907090E002804DB00F1E02080F886
:101EE0000014704700F00F0000F1E02080F8141D8E
:101EF00070473221401C484310F0FF0F03D00121EE
:101F000001EB10207047000A704700002DE9F041F6
:101F10000546022817D902240C4EDFF8348010E061
:101F2000A01C8007C70EA007B0F1004F01D0706859
:101F300002E000F0A7F87060F84008F80400641CA4
:101F4000E4B2AC42ECD3BDE8F08100001C000020FC
:101F5000E401002070B500F095F80446C0B2FFF728
:101F6000C8FF064D2870C4F30720FFF7C2FF0449DD
:101F70006870200C0870200E487070BD1C00002096
:101F8000E401002008B5FEF785FDFFF70BFEFFF723
:101F900065FDFFF7B7FD36483449002501604FF471
:101FA0001651C0E901150821C560C0E904518561D9
:101FB000C561FFF78BFC08B172B6FEE7FFF726FD9F
:101FC0002D492C4808600846FEF7B5FB08B172B6EB
:101FD000FEE7FFF71CF901210846FEF7FBFDFFF7BE
:101FE000B9FF264C2078FFF791FF21484430FFF7D6
:101FF00006FD1F48227822494430FEF7E1F9FFF739
:1020000077FE1B496FF001004839096808611848DC
:102010004838FFF7C1F9184C241F15484430FFF722
:10202000A5FD0028F9D012484430FEF7D8F900F198
:10203000090113290DD2002801DA404240B221786B
:102040000029FCD02570C0B2FEF799F98DF8000088
:1020500005E08DF8000020780028FCD025700122D2
:1020600069460348FFF7A5FCD7E7000000380140A8
:102070009C00002000300240040000201D000020D1
:10208000E401002038B500252C460B48FEF7DCFAA9
:102090000948FEF733FA00F0030061008840641C31
:1020A000E4B20544102CF0D30122694603480095A0
:1020B000FEF72AFB38BD00002400002004000020A9
:1020C00000000000000000000102030406070809E8
:1020D0000000000001020304F820000800000020B6
:1020E00024000000280100081C2100082400002012
:1020F0005408000044010008010000000000000036
:1021000000000000010000001000000000000000BE
:0C2110000024F4000000000000000000AB
:04000005080000ED02
:00000001FF
