:020000040800F2
:100000001806002019200008E90D0008EB0D000873
:10001000ED0D0008EF0D0008F10D000800000000D4
:10002000000000000000000000000000F30D0008C8
:10003000F50D000800000000F70D0008F90D00089C
:100040003D20000841200008452000084920000804
:100050004D20000851200008FD0D00085520000823
:10006000592000085D200008612000086520000874
:10007000692000086D200008712000087520000824
:10008000792000087D2000088120000885200008D4
:10009000892000088D200008912000089520000884
:1000A000992000089D200008A1200008A520000834
:1000B0001D0E0008A9200008AD200008B12000088E
:1000C000B5200008B9200008BD200008C1200008A4
:1000D000C5200008230E0008C9200008CD20000814
:1000E000D1200008D5200008D92000082DE9F843C8
:1000F000040016D02078DFF87064C10713D570684B
:1001000000F00C00042807D0706800F00C000828EC
:1001100041D17068C1033ED53068810303D5606862
:10012000002800F064812078DFF84C74810719D52D
:10013000706810F00C0F07D0706800F00C000828F1
:1001400061D17068C1035ED43068810703D520692E
:10015000012840F04C813168606921F0F80141EAE2
:10016000C00131602178080740F18180A069DFF883
:100170000C14002800F0A68001220A6000F032FA78
:100180000546706A810763D400F02CFA401B0228F0
:10019000F7D903202EE16068B0F5803F04D13068C4
:1001A00040F48030306014E008B930680AE0B0F5FF
:1001B000A02F306806D140F480203060316841F4CF
:1001C000803105E020F480303060316821F48021F6
:1001D0003160606858B100F005FA05463068810367
:1001E000A1D400F0FFF9401B6528F7D3D1E700F058
:1001F000F9F905463068810395D500F0F3F9401B05
:100200006528F7D3C5E72069A8B10121396000F05E
:10021000E9F905463068810705D400F0E3F9401B91
:100220000228F7D9B5E73068616920F0F80040EAA4
:10023000C100306096E7386000F0D4F905463168B7
:1002400088078FD500F0CEF9401B0228F7D9A0E728
:10025000DFF818030168C9084FF47A72B1FBF2F2B3
:10026000009200BF0098411E00280091F9D120782B
:1002700041076ED5F0690025C10009D4F06940F04E
:100280008050F0610125F06900F0805000900098E6
:10029000DFF8EC82D8F80000C10520D4D8F80000BF
:1002A00040F48070C8F8000000F09CF98146D8F84E
:1002B0000000C10513D400F095F9A0EB09006528F2
:1002C000F5D366E7086000F08DF90546706A81078E
:1002D000CDD500F087F9401B0228F7D959E7E0682F
:1002E000012808D008B9306A09E00528306A06D12B
:1002F00040F004003062306A40F0010005E0400840
:1003000040003062306A20F00400306241F28938E7
:10031000E06860B100F066F98146306A810713D465
:1003200000F060F9A0EB09004045F6D331E700F09A
:1003300059F98146306A810706D500F053F9A0EBE0
:1003400009004045F6D324E71DB1F06920F0805044
:10035000F061E06900284CD0716801F00C010829B7
:1003600038D002282AD100F047F8054630688101CC
:1003700005D500F037F9401B0228F7D909E7206AB4
:10038000B0F5803F05D17168A06821F400310143C8
:1003900071607268206A616A22F4741202430A432F
:1003A0007260012000F029F804463068810120D4F1
:1003B00000F018F9001B0228F7D9EAE600F01CF853
:1003C00004463068810114D500F00CF9001B0228A6
:1003D000F7D9DEE601280AD07068226A00F480317D
:1003E000914202BF00F47010616A884201D001207E
:1003F00000E00020BDE8F2830020386600F0F2B88B
:100400002DE9F041040088464ED05E4E00F077F8AA
:1004100002D200F06FF847D12068534D810712D502
:10042000400703D5696841F4E061696020780107FD
:1004300003D5686840F4605068606968A06821F07E
:10044000F001014369602178C80725D5606801285B
:1004500002D129688A0303E00228296802D18A01AF
:1004600002D421E08A071FD56968890840EA810023
:10047000686000F0B7F807466868616800F00C0033
:10048000B0EB810F08D000F0ADF8C01B41F289310C
:100490008842F1D303202BE0306800F0070080454C
:1004A00004D200F027F801D0012021E02078410794
:1004B00005D56A68E06822F4E06202436A60217848
:1004C000080706D56968206921F4605141EAC00136
:1004D000696000F019F86A682B49244BC2F30312D3
:1004E000895CC84018602348006800F081F800204B
:1004F000BDE8F0813168C90848EAC101316030685F
:1005000000F0070040457047204919480A6802F08A
:100510000C03082B00D0704710B500BF1EA4C2F317
:100520008343D203E35C08D5096858431EA3C1F393
:1005300040415A5CB0FBF2F010BD184614494843E4
:1005400010BD0A48114A006813681249C3F3022219
:1005500006E006480D4A006813680E49C3F3C2223C
:10056000895CC840704700000010024090010020E4
:1005700000127A008C0100200000424280044242B6
:1005800000700040002002400820000804100240D3
:1005900000093D003420000802030405060708098D
:1005A0000A0B0C0D0E0F1010010230B4002513E0E1
:1005B00050F8042BD30744BFA9F101039A18091F6F
:1005C000042942F8045BFAD213468C0744BF158015
:1005D0009B1CC90748BF1D7050F8041B0029E7D1B8
:1005E00030BC704701484068704700BF840100205C
:1005F00038B50D4D0D4B2A7804464FF47A711868C2
:10060000B1FBF2F2B0FBF2F000F063F850B9102C3D
:1006100008D2002221464FF0FF3000F023F8AC60F2
:10062000002032BD012032BD840100209001002055
:100630000901020002D4314881547047304B02F066
:100640000F021A4402F8041C70472E4B19684FF62B
:10065000FF020002114000F4E06008432A49084309
:100660001860704770B5274B1C68C4F3022301243F
:10067000C3F10705052D2EBF0F2504FA05F56D1EE4
:100680001E1D072E34BF0023DB1E2940994004FAAB
:1006900003F3BDE870405B1E1A401143C8E7010038
:1006A00007D4012200F01F01184B8A40400943F88B
:1006B0002020704701000BD4012200F01F01144BD1
:1006C0008A40400943F82020BFF34F8FBFF36F8F5C
:1006D000704710B5401EB0F1807F01D3012010BDDE
:1006E0000C4C60600F214FF0FF30FFF7A1FF00219D
:1006F000A16007202060002010BD000000E400E0A1
:1007000018ED00E00CED00E00000FA0500E100E06B
:1007100080E100E010E000E038B5040001D10120E4
:1007200032BD00F026F808B900F014F800F017F810
:1007300000F023F8FFE7416100F001F832BD2068C6
:10074000C16841F40051C1600020686020216970D7
:10075000A970704700212970204600F073BA242048
:1007600068702068C16821F40051C160204600F023
:10077000C3B904F13C05687870472068016921F429
:10078000904101612068416921F02A01704710B54C
:1007900000F13C035C78202C18D109B1140001D180
:1007A000012010BD1C78012C10D001241C700162A6
:1007B0008284C2840021596021225A701970006815
:1007C000C26842F08002C260002010BD022010BD4D
:1007D0002068C16821F01001C1607047416921F0B3
:1007E00040014161A06B7047F8B504462668336844
:1007F000F768756913F00F0203F0200107F020007D
:1008000007D1002918BF00285BD02046BDE8F24080
:1008100016E1EA0702D417F4907F52D0DA0705D523
:10082000FE0503D5226C42F0010222645A0705D569
:10083000EE0703D5226C42F0020222649A0705D526
:10084000EE0703D5226C42F0040222641A0706D593
:1008500008B9EA0703D5236C43F008032364226C2C
:10086000002A2DD000291EBF0028204600F0E8F8FD
:1008700020684069216C0A0701D440061BD5204638
:1008800000F0BFF8206841694A060FD5FFF7A6FFC0
:1008900060B10FF2A1114163A06B00F048FA00288B
:1008A0000ED0A06B416BBDE8F44008472046BDE880
:1008B000F24000F097BA204600F094FA002020643D
:1008C000F1BD206B012804F13D0257D1D80655D562
:1008D000F90653D5002300933168009123685868C6
:1008E0000090009920684369580625D5A16B0868D7
:1008F000406880B200287DD0A38D98427ADAE085E6
:100900008869202814D02168C86820F48070C860E5
:1009100000F071F82068416921F040014161202018
:10092000507000212163FFF753FFA06B00F0DAF94C
:10093000A18DE08D091A1BE0A08DE18D411AE08D9B
:1009400000281CBF88B2002854D02068C36823F454
:100950009073C360206843695B085B00436120209B
:100960005070002222632068C26822F01002C26028
:100970002046BDE8F44089B200F035BA18062AD501
:10098000390628D51078212834D1A068B0F5805FC9
:1009900004BF2069002808D1206A0188C1F308013A
:1009A0007160206A811C216205E0206A411C21627D
:1009B000226800785060E08C401EE08480B2C8B9A4
:1009C0002068C16821F08001C1602068C16841F0E1
:1009D0004001C160F1BD58060CD579060AD5F16811
:1009E00021F04001F160204620211170BDE8F24065
:1009F00000F01ABAF1BD2068416949084900416117
:100A000070470168CA6822F49072CA6001684A6936
:100A1000520852004A61016B012904D10168CA6879
:100A200022F01002CA60202180F83E1000220263EA
:100A300070470000406A0021C185C18400F0D2B92E
:100A40001CB590F83E10222954D18168826AB1F514
:100A5000805F0AD1016969B903685968C1F3080167
:100A60001180826A911C81620FE0002904BF016934
:100A7000002902D10368596803E00168496801F060
:100A80007F011170816A4A1C8262C18D491EC18535
:100A900089B269BB0168CA6822F02002CA60016895
:100AA000CA6822F48072CA6001684A69520852001A
:100AB0004A61202180F83E10026B012A16D10021E4
:100AC00001630168CA6822F01002CA6002681168F6
:100AD000CB0607D500240094126800920368596879
:100AE0000091009A818D00F07EF901E000F0D0F9CC
:100AF000002016BD022016BD10B5044622681169FB
:100B0000E06821F4405101431161D3681849A0689D
:100B10000B402169034360690B430343D360516970
:100B2000A06921F440710143516112498A4202D106
:100B3000FFF70FFD01E0FFF704FD6268192148434C
:100B40009200B0FBF2F16423B1FBF3F203FB12114C
:100B500009013231B1FBF3F000F0F00101EB0211B9
:100B6000226800F00F004018906010BD00000000E7
:100B7000F3E9FFFF00380140524881B0016841F0BD
:100B800001010160026802F00102009200994268CE
:100B900042F080524260406800F08050009000981F
:100BA0004948016821F0E06141F00071016001B045
:100BB000704781B000684549884209D141480268C0
:100BC00042F400720260006800F400700090009827
:100BD00001B0704781B000683D49884209D13D4865
:100BE000026842F040020260006800F0400000909D
:100BF000009801B070470068B0F1804F00D0704796
:100C000080B53548016841F00101016000220068AB
:100C100000F001000090002100981C20FFF722FD49
:100C2000BDE802401C20FFF73ABD0068B0F1804FDC
:100C300007D1294801684908490001601C20FFF7D5
:100C400039BD704718B585B00446102200216846AA
:100C500000F01FF921682148814230D11948204C09
:100C6000016841F480410160026802F4804204920C
:100C70000499026842F0040202604FF400710068B7
:100C800000F00400049002220498009101920321D4
:100C900003912046694600F007F94FF48060002177
:100CA0000090019102912046694600F0FDF8002273
:100CB00000212520FFF7D6FC2520FFF7F0FC06B029
:100CC00010BD000018100240040001400024014043
:100CD00000300240141002401C1002400038014055
:100CE0000008014010B590F82110022900F13802E7
:100CF00006D004231360002180F82010012010BDCD
:100D000001680B6823F00E030B60012301680C6877
:100D1000640864000C60916852688B405360012144
:100D2000002280F8211080F82020002010BD38B566
:100D300090F821200024022A00F1340103D004207D
:100D4000486001243EE00268136823F00E0313603C
:100D50000268DFF8743015686D086D001560026870
:100D60009A4208BF012222D0DFF860309A4208BFC1
:100D700010221CD0DFF858309A4208BF4FF480721E
:100D800015D0DFF850309A4208BF4FF480520ED091
:100D9000DFF844309A4208BF4FF4803207D0DFF8C2
:100DA0003C309A420CBF4FF480124FF08072DFF853
:100DB00030301A60012280F8212080F82040096834
:100DC00001B18847204632BD080002401C000240A5
:100DD0003000024044000240580002406C000240D3
:100DE0000400024070477047FEE7FEE7FEE7FEE7BB
:100DF000FEE770477047704700F048B980B500F0D3
:100E00004DF90620FFF756FC4FF40051194800F049
:100E10000FF9BDE80240012000F012B9164800F0B9
:100E2000E3B91648FFF7E0BC154901200870704788
:100E300038B5114C134D204600F07CF9204600F0E7
:100E400042F900F06AFB287800F07BFB2A780E4913
:100E50000E4800F0DEFB00F034FD204600F026F9DD
:100E600021686FF0010008612046BDE8324000F0C3
:100E700037B9000000100140940100203400002028
:100E80003000002015020020DC010020800000203E
:100E9000704710B5044610460A460146204600F049
:100EA00037FD204610BD00002DE9F8474FF0000E39
:100EB0000024674A674BDFF8A0814FF00F09824694
:100EC0000CE0D7683840D06006E095604D68AD0210
:100ED000F7D5D0680743D7600EF1010E0F6837FAD7
:100EE0000EF000F09F80012000FA0EF63740B74266
:100EF000F2D1486838B301281AD002281DD003283F
:100F00002ED0112816D012281AD0544DA8421CBF3A
:100F1000534DA84217D0534DA8421CBF524DA84272
:100F200011D0524DA8421CBF514DA8420BD018E021
:100F3000CC6816E0CC68241D13E0CC68083410E0BF
:100F4000CC680C340DE0886808B9042409E0012855
:100F500019BF0824CAF814600824CAF8106000E019
:100F60000024B7F5807F03D250464FEA8E0C05E08F
:100F7000AEF108050AF104004FEA850C056809FA8C
:100F80000CF6B54304FA0CF6354305604868C0001A
:100F9000A2D5D8F8000040F00100C8F80000D8F849
:100FA000005005F0010500954FEA8E0500984FEAC4
:100FB0009E0053F8206005F00C0C09FA0CF526EAA7
:100FC00005052C4EB24508BF00260ED02A4EB2456C
:100FD00008BF012609D0294EB24508BF022604D019
:100FE000274EB2450CBF0326042606FA0CF63543FD
:100FF00043F82050F8434D68ED0315684CBF3D435E
:10100000054015604D68AD0355684CBF3D43054034
:1010100055604D689668ED024CBF47EA060500EA48
:10102000060552E7BDE8F18702B90904016170477E
:10103000C26801EA0203914341EA0341016170473A
:10104000104A136803421CBF106000F01DB87047BF
:101050000004014008000140181002400000111077
:1010600000001210000021100000221000003110BA
:101070000000321000080140000C01400010014047
:1010800000140140140401407047000002494A68FE
:10109000087882184A60704784010020024801687D
:1010A00041F002010160704710E000E038B5040033
:1010B00001D1012032BD00F07BF818B900F074F8BE
:1010C000FFF799FD50E010B500F076F802BF096A0D
:1010D00040F24442114200F079F8FFF7A6FD56E0D5
:1010E00090F83D10012901D001207047022180F8BD
:1010F0003D100168CA6842F00102CA600168DFF869
:10110000DC20914218BFB1F1804F07D0DFF8D0202A
:1011100091421CBFDFF8CC30994205D1896801F0BB
:101120000701062904D001680A6842F001020A603A
:10113000002070470168CA6852085200CA6041F234
:10114000111301680A6A1A4202BF096A40F2444256
:10115000114204D101680A68520852000A60012154
:1011600080F83D100020704702206870211D206823
:1011700000F03BF90120A872A870E870287168712E
:10118000A871E871287268726870002032BD002072
:10119000A072A070E07020716071A071E071207287
:1011A00060726070207010BD002129702046704769
:1011B00004F13C056878704700F13C04022161703D
:1011C00041F2111301680A6A1A42704704D101689A
:1011D0000A68520852000A6070470000002C014063
:1011E000000400400008004010B504462068016972
:1011F0008A0715D5C1688A0712D56FF0020101610F
:1012000001222277806910F0030F204602D000F0FF
:10121000B2FB03E000F0B0FB00F087F8002020777D
:10122000206801694A0715D5C1684A0712D56FF0D1
:101230000401016102222277806910F4407F204678
:1012400002D000F098FB03E000F096FB00F06DF890
:1012500000202077206801690A0715D5C1680A07B0
:1012600012D56FF00801016104222277C06910F0E5
:10127000030F204602D000F07EFB03E000F07CFB71
:1012800000F053F80020207720680169CA0615D5C0
:10129000C168CA0612D56FF01001016108222277D9
:1012A000C06910F4407F204602D000F064FB03E0E8
:1012B00000F062FB00F039F8002020772068016917
:1012C000CA0708D5C168CA0705D56FF001010161D9
:1012D0002046FFF7ADFD206801690A0608D5C16800
:1012E0000A0605D56FF080010161204600F045FB3C
:1012F000206801694A0608D5C1684A0605D56FF01D
:1013000040010161204600F039FB206801698A062E
:101310000AD5C1688A0607D56FF020010161204611
:10132000BDE8104000F02BBB10BD204600F028BBEC
:1013300038B500F04EF801D1022032BD01202070F6
:1013400002226270DFF800012A689368034093600C
:101350000868020018BF10282DD0202818BF302898
:1013600029D0402823D0502816D0602818D07028C3
:1013700003D0B0F5005F07D021E000F025F8286821
:10138000816841F0770105E000F01EF82868816867
:1013900041F48041816012E000F012F850210BE02E
:1013A000CA684968286800F068F8602104E000F025
:1013B00007F8402100E00146286800F070F80EE0D0
:1013C000CA684968286849E0CB684A68896828681B
:1013D0006DE0054605F13C042078012870470120A6
:1013E000607000212170002032BD70B5174E036877
:1013F000174C184DB04218BFB0F1804F03D0A8422F
:1014000018BFA04209D14A6823F070031343B042C9
:101410001CBFB0F1804FA84201D0A04203D1CA68DE
:1014200023F4407313434A6923F08003134303609A
:10143000B0428B68C3620A68826202D10969064AB7
:1014400011600123436170BD8800FFFF002C014043
:101450000008004000040040302C014010B5036A31
:10146000046A64086400046223F00A03846924F0B7
:10147000F00444EA0214846123E010B5036A23F007
:10148000100303628369046A23F4704343EA02335E
:1014900024F0A004836144EA0114046210BD826850
:1014A00022F07002114341F007018160704710B5CE
:1014B000846824F47F442143114341EA032181607D
:1014C00010BD1943016210BD7CB500240025294ED2
:1014D000304600F0D1FA304600F048FB00F003003F
:1014E0006900884004196D1CE8B21028F0DB22481E
:1014F00000940122694600F03BFC76BD411C32207D
:10150000414389B2CA0901EB1260000AA1EB002134
:101510000129A8BF401CC0B2704738B5FFF7D4FFFF
:101520000446C0B2154DFFF7E9FF28702004000EF5
:10153000FFF7E4FF6870210C1148240E447001701D
:1015400031BDF8B50546022D13DD02260C4CB11C49
:10155000481001EB90729210A1EB8200C70010B905
:10156000FFF7B2FF6063606BF840A055761CAE4297
:10157000EDDBF1BD00000020780000201402002007
:10158000DC0100200246012005E0CB0744BFD3B2B6
:101590005843524349080B00F7D1704710B501007A
:1015A00001D1002010BD0446411EC9B20A20FFF738
:1015B000E9FF44432402200E10BD00F58070002195
:1015C00001704180704700F580721378C154107823
:1015D000401C10705088401C508080B2B0F5807F55
:1015E000C4BF4FF480705080704700F580714A8806
:1015F0000B789B1A1BB2002B48BF03F580731BB2FC
:10160000521EC05C4A8040B27047B0F80201C0B2BE
:101610007047F8B504460D461646002704E0295CDD
:101620002046FFF7D0FF7F1CF8B2B042F7D3F1BDE0
:101630002DE9F04186B000F0B1FB00F007F910226F
:1016400000F03BF9A548A64C0168A64E41F01001F8
:101650000160026802F0100204920499026842F0EC
:1016600020020260036803F02003049304990268D7
:1016700042F008020260036803F00803049304992F
:10168000026842F0040202600122006800F00400D7
:1016900004904FF4005104982046FFF7C5FC4FF426
:1016A0000051009101220192002102910222039235
:1016B00069462046FFF7F8FB01208B490090019115
:1016C0000222029269468948FFF7EEFB00220021C0
:1016D0000620FEF7C7FF0620FEF7E1FF10220021DB
:1016E00002A8FFF7D6FB082200F0E7F84FF0804091
:1016F000306040F21F310A200022F0607160B26059
:101700003261B2613046FFF7D1FC08B100F0FEF85B
:101710004FF48050029002A93046FFF709FE08B14D
:1017200000F0F4F80021009101913046694600F084
:1017300047FB08B100F0EAF86D4C6E4804F1300543
:101740004FF416516860A9600020E8602861686164
:101750000821E8612862A96104F13400FEF7DCFF8A
:1017600008B100F0D3F80C2200F0A7F80021A16026
:1017700021734FF4602160482060E16100202075F2
:10178000606001212161204600F0FCF808B100F002
:10179000BDF81020012100900191002202926946BB
:1017A000204600F0E6F908B100F0B0F85348A8640C
:1017B00004F1780000F0CCFA08B100F0A7F800F0CE
:1017C00031FB0121012000F035FBFFF7A6FE4C4F55
:1017D0003878FFF7B6FE04F180084046FFF7EDFECB
:1017E0003A7848494046FFF714FF00F06AF831683C
:1017F0006FF0010008613046FFF772FC12E0010053
:1018000048BF494228780028FCD000222A70C8B27C
:10181000FFF7C4FE8DF800000122694604F1340090
:10182000FEF7B5FF4046FFF7F0FE0028FAD040462D
:10183000FFF7DBFE00F109011329E0D38DF800006A
:1018400028780028FCD000212970E5E700B593B086
:101850002822002109A8FFF71CFB142200F02DF814
:101860001022002105A8FFF714FB012009904FF476
:10187000803100220A91109209A8FEF737FC08B1C6
:1018800000F044F8012101910F2000900022002176
:101890000292039104926846FEF7B2FD08B100F08F
:1018A00035F8022100220591079205A800F0D2FA2E
:1018B00008B172B6FEE713B000BD00216846FFF71D
:1018C000E8BA80B5104907480A78521EC260FFF78F
:1018D000EDFB08B172B6FEE701BD00001810024032
:1018E000001001409401002000001110000C014084
:1018F0000000002000380140002401400030024078
:1019000015020020DC0100201402002072B6FEE760
:1019100062F30F2262F31F42401810F0030308D055
:10192000C91A1FD3DB0748BF00F8012D28BF20F8D4
:10193000022D130030B414461546103928BF20E993
:101940003C00FAD8490728BF20E90C0048BF40F8FE
:10195000042D890028BF20F8022D48BF00F8012D72
:1019600030BC7047C91818BF00F8012DCB0728BF3D
:1019700000F8012D704770477047704770477047F7
:1019800070470000F8B5044600270026002C71D0EF
:1019900004F12405686820B9AE6028702046FFF77E
:1019A00008F9204600F0ACF96968CA065ED4010067
:1019B0005CD1696821F4885141F002016960636873
:1019C000E269217B1343A268B2F5807F14BF012A2C
:1019D0004FF48077227D012A43EA41030FD131B9C8
:1019E000A169491E490341F400610F4307E069689A
:1019F00041F020016960A96841F00101A9602168F6
:101A00004A6822F4694217434F602268DFF8CC121B
:101A100097680F401F439760A168B1F5807F18BF9A
:101A2000012902D12669761E36052168CA6A22F488
:101A300070021643CE622468DFF8A412A2680A403E
:101A40009A4208D10023AB60696821F0020141F09D
:101A500001016960F2BD686820F0020040F01000EA
:101A60006860A86840F00100A86003E0686840F082
:101A7000100068600120F2BD70B500F025F801D1BA
:101A8000022070BD00F058F801001CD16A68DFF830
:101A9000541200F03EF80DD10E6816F4702F09D0E4
:101AA00000F029F86B68DE0446BFAB6823F006033C
:101AB000002305E000F011F8F4D500F015F8F1E787
:101AC00000F032F83CE005E0044604F124052878F3
:101AD000012870470021297070BD6E6826F48016B9
:101AE0006E605B685E0570476B6823F4005343F4D7
:101AF00080536B6070476B6843F480136B600E68B3
:101B0000730505D56E6826F4005646F480566E605F
:101B100070470A4042F480726A602368DFF8CC2183
:101B2000DFF8CC1193427047AB6000262E706FF047
:101B3000020325682B60704701202870204696E03C
:101B400023689C6804F46024B4F5602F09D19342A3
:101B500003D1096811F4702F03D1996841F4A001F1
:101B600002E0996841F48011996070BD0068C06C12
:101B70007047F8B50A46002100F1240300911C7853
:101B8000012C01D10220F2BD01241C701F275468D2
:101B900015680668072C08D2641E04EB8404D6F886
:101BA00034C000F05EF8756312E00D2C08D2E41F1B
:101BB00004EB8404D6F830C000F053F8356307E036
:101BC0000D3C04EB8404D6F82CC000F04AF8F56212
:101BD00007271668946805680A2E08D30A3E06EBA4
:101BE0004606D5F80CC000F036F8EC6006E006EBCF
:101BF0004606D5F810C000F02EF82C611468102CA1
:101C000018BF112C23D100683A4CA0421AD13A488F
:101C100005682C021BD4056845F4000505601068B2
:101C2000102814D1304A354D1468B4FBF5F50A205C
:101C300045430095009800281EBF0098401E009064
:101C4000F8D104E00121586840F0200058600020DD
:101C500018700846F2BDB7402CEA0707B4403C4371
:101C60007047A7402CEA0707A5403D43704738B5A9
:101C700004460020009020688168CA072CD481683F
:101C80001E4A41F00101816017480168B1FBF2F280
:101C9000009202E00098401E009000980028F9D1C0
:101CA000FEF7A0FC054600F04FF815D4FEF79AFCAD
:101CB000401B0328F7D300F047F8F4D404F12400C4
:101CC0000022416841F010014160816841F001014A
:101CD00081600270012032BD002032BDFDF7E1FFBE
:101CE000FE0E1FFFFEFDFFFF9001002000280140B7
:101CF00004240140002401400824014040420F0018
:101D000038B5044620688168CA071BD58168490830
:101D100049008160FEF766FC054600F015F811D514
:101D2000FEF760FC401B0328F7D300F00DF8F4D554
:101D3000A16A41F01001A162E06A40F00100E06296
:101D4000012032BD002032BD20688168C80770477D
:101D500010B5040001D1012010BD607920B9002127
:101D600021712046FEF736FF01206071002010BD72
:101D700030B50346022058711868846844F00104A5
:101D80008460002003E051F820502560401C1C684E
:101D90009042F8D320680121597130BD80B50748C1
:101DA000016841F0100101600320FEF74EFC0F2096
:101DB000FEF71EFCFEF7E0FE002002BD0020024000
:101DC00070B500F13C031A78012A01D1022070BDE0
:101DD00001221A7002245C7005686E68AC680A689B
:101DE00026F0700616436E6002680C48824218BFE7
:101DF000B2F1804F05D00A4882421CBF064DAA426C
:101E000004D1486824F0800404439460012159708F
:101E10000020187070BD000000080040002C014038
:101E2000000400400248016821F00201016070478F
:101E300010E000E00648026822F004020129026076
:101E400001D130BF704740BF20BF20BF70470000A6
:101E500010ED00E02DE9FC410646354D3078C10714
:101E600050D5A8690024C10009D4A86940F0805069
:101E7000A8610124A86900F08050009000982D4FBF
:101E80003868C10511D4386840F480703860FEF7B6
:101E9000A9FB80463868C10507D4FEF7A3FBA0EB79
:101EA00008006528F6D303203FE0E86910F440708D
:101EB0001EBF716801F44071884218D01E49E8695C
:101EC00001220A60002320F440700B60E861C00723
:101ED0000DD5FEF787FB0746E869810707D4FEF7B3
:101EE00081FBC01B41F289318842F5D3DBE7EA6907
:101EF000706822F440720243EA611CB1A86920F0C4
:101F00008050A8613078810705D52A68B06822F42E
:101F1000404202432A603178C80605D52968F06836
:101F200021F48001014329600020BDE8F681000012
:101F300004100240007000404004424230B5016885
:101F400084684218416802EB5103C90703D54C4429
:101F500001E0491C05D19A420AD012F9011B12F87E
:101F6000015B002904F8015BF3D4491EF7D5F2E7C1
:101F70000C3030BD10B5074979441831064C7C440B
:101F8000163404E00A68081D114488470146A1423E
:101F9000F8D110BD08000000240000000FE6FFFF8C
:101FA00084000000940100200000000091FFFFFF6A
:101FB0002C0100002C0000000000002000F00DF8B3
:101FC000002801D0FFF7D6FFAFF300800020AFF369
:101FD0000080FFF72DFB00F002F80120704700F0B1
:101FE00001B800000746384600F002F8FBE70000A1
:101FF00080B5AFF30080024A11001820ABBEFBE7AA
:1020000026000200704700000000000000000000F1
:1020100001020304060708090148804701480047F8
:102020000520000829200008AFF30080AFF30080EE
:10203000FFF7C4FF0000000001020304FFF7FEBF2A
:10204000FFF7FEBFFFF7FEBFFFF7FEBFFFF7FEBFC4
:10205000FFF7FEBFFFF7FEBFFFF7FEBFFFF7FEBFB4
:10206000FFF7FEBFFFF7FEBFFFF7FEBFFFF7FEBFA4
:10207000FFF7FEBFFFF7FEBFFFF7FEBFFFF7FEBF94
:10208000FFF7FEBFFFF7FEBFFFF7FEBFFFF7FEBF84
:10209000FFF7FEBFFFF7FEBFFFF7FEBFFFF7FEBF74
:1020A000FFF7FEBFFFF7FEBFFFF7FEBFFFF7FEBF64
:1020B000FFF7FEBFFFF7FEBFFFF7FEBFFFF7FEBF54
:1020C000FFF7FEBFFFF7FEBFFFF7FEBFFFF7FEBF44
:1020D000FFF7FEBFFFF7FEBFFFF7FEBFD000000116
:1020E00081008100AB000001F9000010FC00022417
:0220F000F400FA
:0400000508002029A6
:00000001FF
